{
  "_format": "hh-sol-artifact-1",
  "contractName": "LandRecordsContract",
  "sourceName": "contracts/LandRecordsContract.sol",
  "abi": [
    {
      "inputs": [],
      "stateMutability": "nonpayable",
      "type": "constructor"
    },
    {
      "inputs": [
        {
          "internalType": "address",
          "name": "owner",
          "type": "address"
        }
      ],
      "name": "OwnableInvalidOwner",
      "type": "error"
    },
    {
      "inputs": [
        {
          "internalType": "address",
          "name": "account",
          "type": "address"
        }
      ],
      "name": "OwnableUnauthorizedAccount",
      "type": "error"
    },
    {
      "inputs": [],
      "name": "ReentrancyGuardReentrantCall",
      "type": "error"
    },
    {
      "inputs": [
        {
          "internalType": "uint256",
          "name": "value",
          "type": "uint256"
        },
        {
          "internalType": "uint256",
          "name": "length",
          "type": "uint256"
        }
      ],
      "name": "StringsInsufficientHexLength",
      "type": "error"
    },
    {
      "anonymous": false,
      "inputs": [
        {
          "indexed": true,
          "internalType": "string",
          "name": "surveyNumber",
          "type": "string"
        },
        {
          "indexed": false,
          "internalType": "bool",
          "name": "isCompromised",
          "type": "bool"
        },
        {
          "indexed": false,
          "internalType": "string",
          "name": "reason",
          "type": "string"
        }
      ],
      "name": "IntegrityCheckPerformed",
      "type": "event"
    },
    {
      "anonymous": false,
      "inputs": [
        {
          "indexed": true,
          "internalType": "string",
          "name": "surveyNumber",
          "type": "string"
        },
        {
          "indexed": false,
          "internalType": "string",
          "name": "eventType",
          "type": "string"
        },
        {
          "indexed": true,
          "internalType": "address",
          "name": "officer",
          "type": "address"
        },
        {
          "indexed": false,
          "internalType": "uint256",
          "name": "timestamp",
          "type": "uint256"
        },
        {
          "indexed": false,
          "internalType": "string",
          "name": "metadata",
          "type": "string"
        },
        {
          "indexed": false,
          "internalType": "uint256",
          "name": "blockNumber",
          "type": "uint256"
        },
        {
          "indexed": false,
          "internalType": "string",
          "name": "dataHash",
          "type": "string"
        }
      ],
      "name": "LandRecordUpdated",
      "type": "event"
    },
    {
      "anonymous": false,
      "inputs": [
        {
          "indexed": true,
          "internalType": "address",
          "name": "officerAddress",
          "type": "address"
        },
        {
          "indexed": false,
          "internalType": "string",
          "name": "name",
          "type": "string"
        },
        {
          "indexed": false,
          "internalType": "string",
          "name": "designation",
          "type": "string"
        },
        {
          "indexed": false,
          "internalType": "string",
          "name": "district",
          "type": "string"
        },
        {
          "indexed": false,
          "internalType": "string",
          "name": "taluka",
          "type": "string"
        }
      ],
      "name": "OfficerRegistered",
      "type": "event"
    },
    {
      "anonymous": false,
      "inputs": [
        {
          "indexed": true,
          "internalType": "address",
          "name": "officerAddress",
          "type": "address"
        },
        {
          "indexed": false,
          "internalType": "bool",
          "name": "isActive",
          "type": "bool"
        }
      ],
      "name": "OfficerStatusChanged",
      "type": "event"
    },
    {
      "anonymous": false,
      "inputs": [
        {
          "indexed": true,
          "internalType": "address",
          "name": "previousOwner",
          "type": "address"
        },
        {
          "indexed": true,
          "internalType": "address",
          "name": "newOwner",
          "type": "address"
        }
      ],
      "name": "OwnershipTransferred",
      "type": "event"
    },
    {
      "anonymous": false,
      "inputs": [
        {
          "indexed": true,
          "internalType": "string",
          "name": "surveyNumber",
          "type": "string"
        },
        {
          "indexed": false,
          "internalType": "string",
          "name": "initialHash",
          "type": "string"
        },
        {
          "indexed": false,
          "internalType": "uint256",
          "name": "timestamp",
          "type": "uint256"
        }
      ],
      "name": "SurveyBlockCreated",
      "type": "event"
    },
    {
      "anonymous": false,
      "inputs": [
        {
          "indexed": true,
          "internalType": "string",
          "name": "surveyNumber",
          "type": "string"
        },
        {
          "indexed": false,
          "internalType": "string",
          "name": "ownerId",
          "type": "string"
        },
        {
          "indexed": false,
          "internalType": "string",
          "name": "landType",
          "type": "string"
        },
        {
          "indexed": false,
          "internalType": "string",
          "name": "dataHash",
          "type": "string"
        },
        {
          "indexed": false,
          "internalType": "uint256",
          "name": "timestamp",
          "type": "uint256"
        }
      ],
      "name": "SurveyDataUpdated",
      "type": "event"
    },
    {
      "anonymous": false,
      "inputs": [
        {
          "indexed": true,
          "internalType": "string",
          "name": "surveyNumber",
          "type": "string"
        },
        {
          "indexed": false,
          "internalType": "string",
          "name": "eventType",
          "type": "string"
        },
        {
          "indexed": false,
          "internalType": "string",
          "name": "ownerId",
          "type": "string"
        },
        {
          "indexed": false,
          "internalType": "uint256",
          "name": "timestamp",
          "type": "uint256"
        },
        {
          "indexed": false,
          "internalType": "string",
          "name": "eventHash",
          "type": "string"
        },
        {
          "indexed": false,
          "internalType": "uint256",
          "name": "eventIndex",
          "type": "uint256"
        }
      ],
      "name": "TimelineEventAdded",
      "type": "event"
    },
    {
      "inputs": [
        {
          "internalType": "string",
          "name": "surveyNumber",
          "type": "string"
        },
        {
          "internalType": "string",
          "name": "eventType",
          "type": "string"
        },
        {
          "internalType": "string",
          "name": "ownerId",
          "type": "string"
        },
        {
          "internalType": "string",
          "name": "landType",
          "type": "string"
        },
        {
          "internalType": "string",
          "name": "details",
          "type": "string"
        }
      ],
      "name": "addTimelineEvent",
      "outputs": [],
      "stateMutability": "nonpayable",
      "type": "function"
    },
    {
      "inputs": [
        {
          "internalType": "address",
          "name": "",
          "type": "address"
        }
      ],
      "name": "authorizedOfficers",
      "outputs": [
        {
          "internalType": "bool",
          "name": "",
          "type": "bool"
        }
      ],
      "stateMutability": "view",
      "type": "function"
    },
    {
      "inputs": [
        {
          "internalType": "string",
          "name": "surveyNumber",
          "type": "string"
        },
        {
          "internalType": "string",
          "name": "jmrData",
          "type": "string"
        },
        {
          "internalType": "string",
          "name": "awardData",
          "type": "string"
        },
        {
          "internalType": "string",
          "name": "landRecordData",
          "type": "string"
        },
        {
          "internalType": "string",
          "name": "ownerId",
          "type": "string"
        },
        {
          "internalType": "string",
          "name": "landType",
          "type": "string"
        }
      ],
      "name": "createSurveyBlock",
      "outputs": [],
      "stateMutability": "nonpayable",
      "type": "function"
    },
    {
      "inputs": [
        {
          "internalType": "string",
          "name": "surveyNumber",
          "type": "string"
        },
        {
          "internalType": "string",
          "name": "ownerId",
          "type": "string"
        },
        {
          "internalType": "string",
          "name": "landType",
          "type": "string"
        },
        {
          "internalType": "string",
          "name": "landArea",
          "type": "string"
        },
        {
          "internalType": "string",
          "name": "location",
          "type": "string"
        },
        {
          "internalType": "string",
          "name": "projectDetails",
          "type": "string"
        },
        {
          "internalType": "uint256",
          "name": "timestamp",
          "type": "uint256"
        }
      ],
      "name": "generateSurveyDataHash",
      "outputs": [
        {
          "internalType": "string",
          "name": "dataHash",
          "type": "string"
        }
      ],
      "stateMutability": "pure",
      "type": "function"
    },
    {
      "inputs": [],
      "name": "getContractStats",
      "outputs": [
        {
          "internalType": "uint256",
          "name": "totalOfficers",
          "type": "uint256"
        },
        {
          "internalType": "uint256",
          "name": "activeOfficers",
          "type": "uint256"
        },
        {
          "internalType": "uint256",
          "name": "totalRecords",
          "type": "uint256"
        },
        {
          "internalType": "uint256",
          "name": "totalSurveys",
          "type": "uint256"
        }
      ],
      "stateMutability": "view",
      "type": "function"
    },
    {
      "inputs": [
        {
          "internalType": "string",
          "name": "surveyNumber",
          "type": "string"
        }
      ],
      "name": "getCurrentHash",
      "outputs": [
        {
          "internalType": "string",
          "name": "currentHash",
          "type": "string"
        }
      ],
      "stateMutability": "view",
      "type": "function"
    },
    {
      "inputs": [
        {
          "internalType": "string",
          "name": "surveyNumber",
          "type": "string"
        }
      ],
      "name": "getCurrentTimelineHash",
      "outputs": [
        {
          "internalType": "string",
          "name": "currentHash",
          "type": "string"
        }
      ],
      "stateMutability": "view",
      "type": "function"
    },
    {
      "inputs": [
        {
          "internalType": "string",
          "name": "surveyNumber",
          "type": "string"
        }
      ],
      "name": "getLandRecord",
      "outputs": [
        {
          "internalType": "string[]",
          "name": "recordTypes",
          "type": "string[]"
        },
        {
          "internalType": "uint256[]",
          "name": "timestamps",
          "type": "uint256[]"
        },
        {
          "internalType": "address[]",
          "name": "officers",
          "type": "address[]"
        },
        {
          "internalType": "string[]",
          "name": "metadata",
          "type": "string[]"
        },
        {
          "internalType": "string[]",
          "name": "dataHashes",
          "type": "string[]"
        },
        {
          "internalType": "string[]",
          "name": "currentHashes",
          "type": "string[]"
        }
      ],
      "stateMutability": "view",
      "type": "function"
    },
    {
      "inputs": [
        {
          "internalType": "address",
          "name": "officerAddress",
          "type": "address"
        }
      ],
      "name": "getOfficerInfo",
      "outputs": [
        {
          "internalType": "string",
          "name": "name",
          "type": "string"
        },
        {
          "internalType": "string",
          "name": "designation",
          "type": "string"
        },
        {
          "internalType": "string",
          "name": "district",
          "type": "string"
        },
        {
          "internalType": "string",
          "name": "taluka",
          "type": "string"
        },
        {
          "internalType": "bool",
          "name": "isActive",
          "type": "bool"
        },
        {
          "internalType": "uint256",
          "name": "registrationDate",
          "type": "uint256"
        }
      ],
      "stateMutability": "view",
      "type": "function"
    },
    {
      "inputs": [
        {
          "internalType": "string",
          "name": "surveyNumber",
          "type": "string"
        }
      ],
      "name": "getRecordCount",
      "outputs": [
        {
          "internalType": "uint256",
          "name": "count",
          "type": "uint256"
        }
      ],
      "stateMutability": "view",
      "type": "function"
    },
    {
      "inputs": [
        {
          "internalType": "string",
          "name": "surveyNumber",
          "type": "string"
        }
      ],
      "name": "getSurveyData",
      "outputs": [
        {
          "components": [
            {
              "internalType": "string",
              "name": "surveyNumber",
              "type": "string"
            },
            {
              "internalType": "string",
              "name": "ownerId",
              "type": "string"
            },
            {
              "internalType": "string",
              "name": "landType",
              "type": "string"
            },
            {
              "internalType": "string",
              "name": "landArea",
              "type": "string"
            },
            {
              "internalType": "string",
              "name": "location",
              "type": "string"
            },
            {
              "internalType": "string",
              "name": "projectDetails",
              "type": "string"
            },
            {
              "internalType": "uint256",
              "name": "lastUpdated",
              "type": "uint256"
            },
            {
              "internalType": "bool",
              "name": "isActive",
              "type": "bool"
            }
          ],
          "internalType": "struct LandRecordsContract.SurveyData",
          "name": "data",
          "type": "tuple"
        }
      ],
      "stateMutability": "view",
      "type": "function"
    },
    {
      "inputs": [
        {
          "internalType": "string",
          "name": "surveyNumber",
          "type": "string"
        }
      ],
      "name": "getSurveyIntegrityStatus",
      "outputs": [
        {
          "internalType": "bool",
          "name": "isIntegrityValid",
          "type": "bool"
        },
        {
          "internalType": "uint256",
          "name": "lastChecked",
          "type": "uint256"
        },
        {
          "internalType": "string",
          "name": "compromiseReason",
          "type": "string"
        }
      ],
      "stateMutability": "view",
      "type": "function"
    },
    {
      "inputs": [
        {
          "internalType": "string",
          "name": "surveyNumber",
          "type": "string"
        }
      ],
      "name": "getSurveyTimeline",
      "outputs": [
        {
          "internalType": "string[]",
          "name": "eventTypes",
          "type": "string[]"
        },
        {
          "internalType": "string[]",
          "name": "ownerIds",
          "type": "string[]"
        },
        {
          "internalType": "string[]",
          "name": "landTypes",
          "type": "string[]"
        },
        {
          "internalType": "string[]",
          "name": "details",
          "type": "string[]"
        },
        {
          "internalType": "uint256[]",
          "name": "timestamps",
          "type": "uint256[]"
        },
        {
          "internalType": "address[]",
          "name": "officers",
          "type": "address[]"
        },
        {
          "internalType": "string[]",
          "name": "eventHashes",
          "type": "string[]"
        },
        {
          "internalType": "uint256[]",
          "name": "eventIndexes",
          "type": "uint256[]"
        }
      ],
      "stateMutability": "view",
      "type": "function"
    },
    {
      "inputs": [
        {
          "internalType": "string",
          "name": "surveyNumber",
          "type": "string"
        }
      ],
      "name": "getTimelineCount",
      "outputs": [
        {
          "internalType": "uint256",
          "name": "count",
          "type": "uint256"
        }
      ],
      "stateMutability": "view",
      "type": "function"
    },
    {
      "inputs": [
        {
          "internalType": "string",
          "name": "",
          "type": "string"
        }
      ],
      "name": "integrityChecks",
      "outputs": [
        {
          "internalType": "string",
          "name": "surveyNumber",
          "type": "string"
        },
        {
          "internalType": "string",
          "name": "databaseHash",
          "type": "string"
        },
        {
          "internalType": "string",
          "name": "blockchainHash",
          "type": "string"
        },
        {
          "internalType": "uint256",
          "name": "lastChecked",
          "type": "uint256"
        },
        {
          "internalType": "bool",
          "name": "isCompromised",
          "type": "bool"
        },
        {
          "internalType": "string",
          "name": "compromiseReason",
          "type": "string"
        }
      ],
      "stateMutability": "view",
      "type": "function"
    },
    {
      "inputs": [
        {
          "internalType": "string",
          "name": "surveyNumber",
          "type": "string"
        },
        {
          "internalType": "uint256",
          "name": "blockNumber",
          "type": "uint256"
        }
      ],
      "name": "invalidateRecord",
      "outputs": [],
      "stateMutability": "nonpayable",
      "type": "function"
    },
    {
      "inputs": [
        {
          "internalType": "address",
          "name": "officerAddress",
          "type": "address"
        }
      ],
      "name": "isAuthorizedOfficer",
      "outputs": [
        {
          "internalType": "bool",
          "name": "isAuthorized",
          "type": "bool"
        }
      ],
      "stateMutability": "view",
      "type": "function"
    },
    {
      "inputs": [
        {
          "internalType": "string",
          "name": "",
          "type": "string"
        },
        {
          "internalType": "uint256",
          "name": "",
          "type": "uint256"
        }
      ],
      "name": "landRecords",
      "outputs": [
        {
          "internalType": "string",
          "name": "surveyNumber",
          "type": "string"
        },
        {
          "internalType": "string",
          "name": "eventType",
          "type": "string"
        },
        {
          "internalType": "address",
          "name": "officer",
          "type": "address"
        },
        {
          "internalType": "uint256",
          "name": "timestamp",
          "type": "uint256"
        },
        {
          "internalType": "string",
          "name": "metadata",
          "type": "string"
        },
        {
          "internalType": "uint256",
          "name": "blockNumber",
          "type": "uint256"
        },
        {
          "internalType": "bool",
          "name": "isValid",
          "type": "bool"
        },
        {
          "internalType": "string",
          "name": "previousHash",
          "type": "string"
        },
        {
          "internalType": "string",
          "name": "currentHash",
          "type": "string"
        },
        {
          "internalType": "uint256",
          "name": "nonce",
          "type": "uint256"
        },
        {
          "internalType": "string",
          "name": "dataHash",
          "type": "string"
        }
      ],
      "stateMutability": "view",
      "type": "function"
    },
    {
      "inputs": [
        {
          "internalType": "address",
          "name": "",
          "type": "address"
        }
      ],
      "name": "officers",
      "outputs": [
        {
          "internalType": "address",
          "name": "officerAddress",
          "type": "address"
        },
        {
          "internalType": "string",
          "name": "name",
          "type": "string"
        },
        {
          "internalType": "string",
          "name": "designation",
          "type": "string"
        },
        {
          "internalType": "string",
          "name": "district",
          "type": "string"
        },
        {
          "internalType": "string",
          "name": "taluka",
          "type": "string"
        },
        {
          "internalType": "bool",
          "name": "isActive",
          "type": "bool"
        },
        {
          "internalType": "uint256",
          "name": "registrationDate",
          "type": "uint256"
        }
      ],
      "stateMutability": "view",
      "type": "function"
    },
    {
      "inputs": [],
      "name": "owner",
      "outputs": [
        {
          "internalType": "address",
          "name": "",
          "type": "address"
        }
      ],
      "stateMutability": "view",
      "type": "function"
    },
    {
      "inputs": [
        {
          "internalType": "address",
          "name": "officerAddress",
          "type": "address"
        },
        {
          "internalType": "string",
          "name": "name",
          "type": "string"
        },
        {
          "internalType": "string",
          "name": "designation",
          "type": "string"
        },
        {
          "internalType": "string",
          "name": "district",
          "type": "string"
        },
        {
          "internalType": "string",
          "name": "taluka",
          "type": "string"
        }
      ],
      "name": "registerOfficer",
      "outputs": [],
      "stateMutability": "nonpayable",
      "type": "function"
    },
    {
      "inputs": [],
      "name": "renounceOwnership",
      "outputs": [],
      "stateMutability": "nonpayable",
      "type": "function"
    },
    {
      "inputs": [
        {
          "internalType": "address",
          "name": "officerAddress",
          "type": "address"
        },
        {
          "internalType": "bool",
          "name": "isActive",
          "type": "bool"
        }
      ],
      "name": "setOfficerStatus",
      "outputs": [],
      "stateMutability": "nonpayable",
      "type": "function"
    },
    {
      "inputs": [
        {
          "internalType": "string",
          "name": "",
          "type": "string"
        }
      ],
      "name": "surveyCurrentTimelineHash",
      "outputs": [
        {
          "internalType": "string",
          "name": "",
          "type": "string"
        }
      ],
      "stateMutability": "view",
      "type": "function"
    },
    {
      "inputs": [
        {
          "internalType": "string",
          "name": "",
          "type": "string"
        }
      ],
      "name": "surveyData",
      "outputs": [
        {
          "internalType": "string",
          "name": "surveyNumber",
          "type": "string"
        },
        {
          "internalType": "string",
          "name": "ownerId",
          "type": "string"
        },
        {
          "internalType": "string",
          "name": "landType",
          "type": "string"
        },
        {
          "internalType": "string",
          "name": "landArea",
          "type": "string"
        },
        {
          "internalType": "string",
          "name": "location",
          "type": "string"
        },
        {
          "internalType": "string",
          "name": "projectDetails",
          "type": "string"
        },
        {
          "internalType": "uint256",
          "name": "lastUpdated",
          "type": "uint256"
        },
        {
          "internalType": "bool",
          "name": "isActive",
          "type": "bool"
        }
      ],
      "stateMutability": "view",
      "type": "function"
    },
    {
      "inputs": [
        {
          "internalType": "string",
          "name": "",
          "type": "string"
        }
      ],
      "name": "surveyDataHashes",
      "outputs": [
        {
          "internalType": "string",
          "name": "",
          "type": "string"
        }
      ],
      "stateMutability": "view",
      "type": "function"
    },
    {
      "inputs": [
        {
          "internalType": "string",
          "name": "",
          "type": "string"
        }
      ],
      "name": "surveyIntegrityStatus",
      "outputs": [
        {
          "internalType": "bool",
          "name": "",
          "type": "bool"
        }
      ],
      "stateMutability": "view",
      "type": "function"
    },
    {
      "inputs": [
        {
          "internalType": "string",
          "name": "",
          "type": "string"
        },
        {
          "internalType": "uint256",
          "name": "",
          "type": "uint256"
        }
      ],
      "name": "surveyTimeline",
      "outputs": [
        {
          "internalType": "string",
          "name": "eventType",
          "type": "string"
        },
        {
          "internalType": "string",
          "name": "ownerId",
          "type": "string"
        },
        {
          "internalType": "string",
          "name": "surveyNumber",
          "type": "string"
        },
        {
          "internalType": "string",
          "name": "landType",
          "type": "string"
        },
        {
          "internalType": "string",
          "name": "details",
          "type": "string"
        },
        {
          "internalType": "uint256",
          "name": "timestamp",
          "type": "uint256"
        },
        {
          "internalType": "address",
          "name": "officer",
          "type": "address"
        },
        {
          "internalType": "string",
          "name": "eventHash",
          "type": "string"
        },
        {
          "internalType": "string",
          "name": "previousHash",
          "type": "string"
        },
        {
          "internalType": "uint256",
          "name": "eventIndex",
          "type": "uint256"
        },
        {
          "internalType": "bool",
          "name": "isValid",
          "type": "bool"
        }
      ],
      "stateMutability": "view",
      "type": "function"
    },
    {
      "inputs": [
        {
          "internalType": "string",
          "name": "",
          "type": "string"
        }
      ],
      "name": "surveyTimelineCount",
      "outputs": [
        {
          "internalType": "uint256",
          "name": "",
          "type": "uint256"
        }
      ],
      "stateMutability": "view",
      "type": "function"
    },
    {
      "inputs": [
        {
          "internalType": "address",
          "name": "newOwner",
          "type": "address"
        }
      ],
      "name": "transferOwnership",
      "outputs": [],
      "stateMutability": "nonpayable",
      "type": "function"
    },
    {
      "inputs": [
        {
          "internalType": "string",
          "name": "surveyNumber",
          "type": "string"
        },
        {
          "internalType": "string",
          "name": "eventType",
          "type": "string"
        },
        {
          "internalType": "string",
          "name": "metadata",
          "type": "string"
        },
        {
          "internalType": "string",
          "name": "ownerId",
          "type": "string"
        },
        {
          "internalType": "string",
          "name": "landType",
          "type": "string"
        },
        {
          "internalType": "string",
          "name": "landArea",
          "type": "string"
        },
        {
          "internalType": "string",
          "name": "location",
          "type": "string"
        },
        {
          "internalType": "string",
          "name": "projectDetails",
          "type": "string"
        }
      ],
      "name": "updateLandRecord",
      "outputs": [],
      "stateMutability": "nonpayable",
      "type": "function"
    },
    {
      "inputs": [
        {
          "internalType": "string",
          "name": "surveyNumber",
          "type": "string"
        },
        {
          "internalType": "uint256",
          "name": "blockNumber",
          "type": "uint256"
        }
      ],
      "name": "verifyRecord",
      "outputs": [
        {
          "internalType": "bool",
          "name": "isValid",
          "type": "bool"
        }
      ],
      "stateMutability": "view",
      "type": "function"
    },
    {
      "inputs": [
        {
          "internalType": "string",
          "name": "surveyNumber",
          "type": "string"
        },
        {
          "internalType": "string",
          "name": "databaseHash",
          "type": "string"
        }
      ],
      "name": "verifySurveyIntegrity",
      "outputs": [
        {
          "internalType": "bool",
          "name": "isCompromised",
          "type": "bool"
        },
        {
          "internalType": "string",
          "name": "reason",
          "type": "string"
        }
      ],
      "stateMutability": "nonpayable",
      "type": "function"
    }
  ],
  "bytecode": "0x6080806040523462000098573315620000825760008054336001600160a01b0319821681178355604080519390929091906001600160a01b03167f8be0079c531659141344cd1fd0a4f28419497f9722a3daafe3b4186f6b6457e08380a360018055338152600560205220600160ff1982541617905561580190816200009e8239f35b631e4fbdf760e01b815260006004820152602490fd5b600080fdfe6080604052600436101561001257600080fd5b60003560e01c8063084866dd146143cd5780632b4f75d1146140df5780632e81e1b7146140a45780633c925fe71461406e5780634a7b76771461402f5780635eaab2e81461384c57806363e254951461247d57806366ea50dd1461240c57806367ae9d21146123d1578063705ecbce14611c3f578063715018a614611be65780637af8e3a014611bab5780637c63683314611a9c578063807d0fa7146115aa5780638a589fa5146111055780638c154ac8146110bc5780638da5cb5b14611093578063a58bf0b114610f51578063b347506014610e93578063b893bb1014610e35578063bf9cf4cf14610d2c578063c3cef20a14610cd7578063d25bd7a814610b99578063d41eec4e14610ac6578063de0c6ff4146109b3578063dfe6b5d614610982578063e53a1cc214610953578063eb4fc6ac146108f6578063ecc0cc7514610595578063eda03aa71461044d578063f04b5aab146103ec578063f2fde38b146103635763f5124cd91461018757600080fd5b3461035e5760208060031936011261035e576004356001600160401b03811161035e576101b89036906004016146bf565b908080604051936101c885614528565b606094858152858382015285604082015285808201528560808201528560a082015260c081016000905260e001600090528051151561020690614a7a565b604051928382819351928391019161021d9261465c565b810160038152030190206040519161023483614528565b61023d826145b6565b835261024b600183016145b6565b8382019081529361025e600284016145b6565b6040850190815294610272600385016145b6565b858301908152610284600486016145b6565b60808701908152610297600587016145b6565b9160a0880192835260068701549660c089019788526007015460ff169460e089019515158652604051998a99888b525161010080998c01526101208b016102dd9161467f565b9551601f1996878c82030160408d01526102f69161467f565b905191868b830301908b015261030b9161467f565b905190848982030160808a01526103219161467f565b905190838882030160a08901526103379161467f565b9051918682030160c087015261034c9161467f565b925160e0850152511515908301520390f35b600080fd5b3461035e57602036600319011261035e5761037c6144a1565b610384614852565b6001600160a01b039081169081156103d357600054826001600160601b0360a01b821617600055167f8be0079c531659141344cd1fd0a4f28419497f9722a3daafe3b4186f6b6457e0600080a3005b604051631e4fbdf760e01b815260006004820152602490fd5b3461035e57602036600319011261035e576004356001600160401b03811161035e5760ff6104376020610424819436906004016146bf565b816040519382858094519384920161465c565b8101600a81520301902054166040519015158152f35b3461035e576020610475610460366147d3565b9290816040519382858094519384920161465c565b8101600281520301902090815481101561035e5761049291614820565b5061049c816145b6565b6104a8600183016145b6565b600283015460038401549193906001600160a01b03166104ca600483016145b6565b6005830154600684015460ff166104e3600786016145b6565b926104f0600887016145b6565b94600987015496600a01610503906145b6565b976040519a8b9a610160808d528c0161051b9161467f565b8b810360208d015261052c9161467f565b9160408b015260608a015288810360808a01526105489161467f565b9160a0880152151560c087015285810360e08701526105669161467f565b8481036101008601526105789161467f565b906101208401528281036101408401526105919161467f565b0390f35b3461035e5760208060031936011261035e576004356001600160401b03811161035e576105c69036906004016146bf565b6105d281511515614a7a565b816105e6604051928381519384920161465c565b81019082816007938481520301902080549061060182614b4f565b9261060f6040519485614595565b828452600091825284822090858086015b85851061082f575085518661063482614b66565b9161063e81614b66565b61064782614b66565b61065083614b66565b61065984614bb0565b9161066385614bb0565b9361066d86614b66565b9561067781614bb0565b9760005b82811061071357505050604051988998610100808b528a0161069c91614706565b90898203908a01526106ad91614706565b87810360408901526106be91614706565b86810360608801526106cf91614706565b85810360808701526106e091614762565b84810360a08601526106f191614796565b83810360c085015261070291614706565b82810360e084015261059191614762565b808b61072e8261072661082a9587614bf1565b515192614bf1565b52610739818d614bf1565b508c6107458285614bf1565b5101516107528287614bf1565b5261075d8186614bf1565b50606061076a8285614bf1565b5101516107778288614bf1565b526107828187614bf1565b50608061078f8285614bf1565b51015161079c8289614bf1565b526107a78188614bf1565b5060a06107b48285614bf1565b5101516107c1828a614bf1565b526001600160a01b0360c06107d68386614bf1565b510151166107e4828b614bf1565b5260e06107f18285614bf1565b5101516107fe828c614bf1565b52610809818b614bf1565b506101206108178285614bf1565b510151610824828d614bf1565b52614be2565b61067b565b600191600b91604051610841816144f1565b61084a876145b6565b81526108578588016145b6565b83820152610867600288016145b6565b6040820152610878600388016145b6565b6060820152610889600488016145b6565b6080820152600587015460a0820152848060a01b0360068801541660c08201526108b48688016145b6565b60e08201526108c5600888016145b6565b610100820152600987015461012082015260ff600a8801541615156101408201528152019301930192918690610620565b3461035e57602036600319011261035e576001600160a01b036109176144a1565b16600052600560205260ff604060002054168061093c575b6020906040519015158152f35b50600460205260406000206005015460ff1661092f565b3461035e576020610978610966366147d3565b9061097381511515614a7a565b614c05565b6040519015158152f35b3461035e57600036600319011261035e57608060405160008152600060208201526000604082015260006060820152f35b3461035e57602036600319011261035e576004356001600160401b03811161035e576109eb6020610424610a6f9336906004016146bf565b810160038152030190206109fe816145b6565b90610a0b600182016145b6565b610ab5610a1a600284016145b6565b610aa7610a29600386016145b6565b610a99610a38600488016145b6565b91610a8b610a4860058a016145b6565b95610a7d60ff600760068d01549c015416996040519d8e9d8e61010090818152019061467f565b8d810360208f01529061467f565b908b820360408d015261467f565b9089820360608b015261467f565b90878203608089015261467f565b9085820360a087015261467f565b9160c0840152151560e08301520390f35b3461035e57602036600319011261035e576004356001600160401b03811161035e57610afe6020610424610b639336906004016146bf565b8101600b815203019020610591610b14826145b6565b91610b21600182016145b6565b610b2d600283016145b6565b91610b7f600382015493610b71610b4e600560ff60048701541695016145b6565b94604051998a9960c08b5260c08b019061467f565b9089820360208b015261467f565b90878203604089015261467f565b9260608601521515608085015283820360a085015261467f565b3461035e57602036600319011261035e576001600160a01b0380610bbb6144a1565b166000526004602052604060002090604051610bd68161450d565b818354168152610be8600184016145b6565b9260208201938452610bfc600282016145b6565b9260408301938452610c10600383016145b6565b9160608401928352610c24600482016145b6565b9160808501928352600660ff6005840154169260a08701931515845201549460c08101958652511615610c9e57610c81610c8f92610b71610b63985197519551915193511515965195604051998a9960c08b5260c08b019061467f565b90858203606087015261467f565b91608084015260a08301520390f35b60405162461bcd60e51b815260206004820152601160248201527013d9999a58d95c881b9bdd08199bdd5b99607a1b6044820152606490fd5b3461035e57602036600319011261035e576004356001600160401b03811161035e57610d196020610d0d819336906004016146bf565b61042481511515614a7a565b8101600281520301902054604051908152f35b3461035e57604036600319011261035e57610d456144a1565b6024358015159081810361035e57610d5b614852565b6001600160a01b0392831692610d72841515614d6a565b8360005260046020526040600020541615610df7577f8a40ef3e42980aa96509d3e2e04b0c037f32d7251181d8843c0cb9b3378c99df91610dee6020928560005260048452610dd48160056040600020019060ff801983541691151516179055565b6005845260406000209060ff801983541691151516179055565b604051908152a2005b60405162461bcd60e51b815260206004820152601660248201527513d9999a58d95c881b9bdd081c9959da5cdd195c995960521b6044820152606490fd5b3461035e57602036600319011261035e576004356001600160401b03811161035e57610e7f610e7060206104246105919436906004016146bf565b810160068152030190206145b6565b60405191829160208352602083019061467f565b3461035e5760e036600319011261035e576001600160401b0360043581811161035e57610ec49036906004016146bf565b9060243581811161035e57610edd9036906004016146bf565b9160443582811161035e57610ef69036906004016146bf565b9260643583811161035e57610f0f9036906004016146bf565b60843584811161035e57610f279036906004016146bf565b9060a43594851161035e5761059195610f47610e7f9636906004016146bf565b9360c4359561487e565b3461035e576020610f64610460366147d3565b8101600781520301902090815481101561035e57610f8191614820565b50610f8b816145b6565b610f97600183016145b6565b91610fa4600282016145b6565b610fb0600383016145b6565b610fbc600484016145b6565b600584015460068501546001600160a01b0316610fdb600787016145b6565b92610fe8600888016145b6565b94600988015497600a015460ff16966040519a8b9a610160808d528c0161100e9161467f565b8b810360208d015261101f9161467f565b8a810360408c01526110309161467f565b89810360608b01526110419161467f565b88810360808a01526110529161467f565b9160a088015260c087015285810360e087015261106e9161467f565b8481036101008601526110809161467f565b9161012084015215156101408301520390f35b3461035e57600036600319011261035e576000546040516001600160a01b039091168152602090f35b3461035e57602036600319011261035e576004356001600160401b03811161035e576110f26020610424819336906004016146bf565b8101600881520301902054604051908152f35b3461035e5760a036600319011261035e576001600160401b0360043581811161035e576111369036906004016146bf565b60243582811161035e5761114e9036906004016146bf565b60443583811161035e576111669036906004016146bf565b9160643584811161035e5761117f9036906004016146bf565b60843585811161035e576111979036906004016146bf565b9133600052602095600587526111b460ff60406000205416614a15565b6111c082511515614a7a565b6040516111ea8351918981818701946111da81838861465c565b81016009815203019020546144b7565b15611565579083916111fe87511515614ac6565b6112d86112546112d38b878b8d8c611234611225868b604051809381928a5192839161465c565b810160098152030190206145b6565b9c8d92611240426148ad565b948b6040519a8b985180928b8b019061465c565b8701611268825180938b808501910161465c565b0161127b825180938a808501910161465c565b0161128e8251809389808501910161465c565b016112a18251809388808501910161465c565b016112b48251809387808501910161465c565b016112c78251809386808501910161465c565b01038084520182614595565b614dd4565b946040518a8187516112eb81838861465c565b81016008815203019020549660405194611304866144f1565b8986528a8c870152866040870152606086015260808501524260a08501523360c08501528560e085015261010084015285610120840152611369600193846101408201526040518b81885161135a81838961465c565b81016007815203019020614fa6565b82860180871161154f576113a7918a916040518381895161138b81838861465c565b810160088152030190205560405180938192885192839161465c565b81016009815203019020918451918211611539576113c583546144b7565b601f81116114f0575b5088601f831160011461146b5761145594611434989796948480611441966000805160206157ac8339815191529d9e9661141f96600093611460575b501b916000199060031b1c1916179055614b2f565b9860405197889760a0895260a089019061467f565b918783039088015261467f565b90426040860152848203606086015261467f565b9060808301520390a2005b8a015192503861140a565b601f92919219821690846000528a6000209160005b8181106114db575094611441948461141f9461145599946000805160206157ac8339815191529e9f976114349e9d9c9a106114c2575b5050811b019055614b2f565b89015160001960f88460031b161c191690558e806114b6565b88830151845592850192918c01918c01611480565b8360005289600020601f840160051c8101918b851061152f575b601f0160051c019082905b8281106115235750506113ce565b60008155018290611515565b909150819061150a565b634e487b7160e01b600052604160045260246000fd5b634e487b7160e01b600052601160045260246000fd5b60405162461bcd60e51b815260048101899052601b60248201527f53757276657920626c6f636b20646f6573206e6f7420657869737400000000006044820152606490fd5b3461035e5760c036600319011261035e576001600160401b0360043581811161035e576115db9036906004016146bf565b9060243581811161035e576115f49036906004016146bf565b60443582811161035e5761160c9036906004016146bf565b9060643583811161035e576116259036906004016146bf565b9360843584811161035e5761163e9036906004016146bf565b9360a43581811161035e576116579036906004016146bf565b92336000526020946005865260406000205460ff1661167590614a15565b8351151561168290614a7a565b6040519784519887818b81838a019d61169b918f61465c565b81016009815203019020546116af906144b7565b611a5757868961173f94938a6112d3946116c8426148ad565b926040519788956116df8d5180928a8a019061465c565b86016116f3825180938a808501910161465c565b016117068251809389808501910161465c565b016117198251809388808501910161465c565b0161172c8251809387808501910161465c565b8a5191016112b482868301878e0161465c565b956040519161174d836144f1565b6040519461175a8661457a565b601286527114dd5c9d995e509b1bd8dad0dc99585d195960721b9586888201528452878785015284604085015260608401526040516117988161455f565b602f81527f496e697469616c2073757276657920626c6f636b206372656174656420776974878201526e6820616c6c206c616e64206461746160881b604082015260808401524260a08401523360c08401528760e08401526117f8614b12565b6101008401526000610120840152611825600193846101408201526040518881885161135a81838a61465c565b826040518781875161183881838961465c565b81016008815203019020556040518681865161185581838861465c565b810160098152030190209088519081116115395761187382546144b7565b601f8111611a0e575b5086601f821160011461198b57936118da886119609561193a95856119749a966000805160206157ac8339815191529e9f9a600091611980575b50600019600383901b1c191690861b1790555b60405180938192875192839161465c565b8101600a8152030190209060ff198254161790556118f781614b2f565b7f2f32fddd89c87048cdbc120d2afd8519ab4d1664738f25e8475b703dc21eaaec604051604081528061192d604082018961467f565b428c8301520390a2614b2f565b9660e060405196879660a08852601260a089015260c088015286015260e085019061467f565b90426040850152838203606085015261467f565b600060808301520390a2005b90508a0151386118b6565b601f1982169083600052886000209160005b8181106119f957506119609561193a9588866000805160206157ac8339815191529e9f9a966118da968f96996119749e9a106119e0575b5050811b0190556118c9565b8c015160001960f88460031b161c1916905538806119d4565b8c830151845592870192918a01918a0161199d565b8260005287600020601f830160051c810191898410611a4d575b601f0160051c019085905b828110611a4157505061187c565b60008155018590611a33565b9091508190611a28565b60405162461bcd60e51b815260048101889052601b60248201527f53757276657920626c6f636b20616c72656164792065786973747300000000006044820152606490fd5b3461035e5760208060031936011261035e576004356001600160401b03811161035e57611acd9036906004016146bf565b611ad981511515614a7a565b6105916040519160ff611b7c85835195818181870198611afa81838c61465c565b8101600b8152030190209560405194611b1286614544565b611b1b886145b6565b8652611b29600189016145b6565b83870152611b39600289016145b6565b604087015260a0611b66600560038b01549a60608a019b8c5288600482015416151560808b0152016145b6565b960195865260405193849283925192839161465c565b8101600a815203019020541692519051906040519485941515855284015260606040840152606083019061467f565b3461035e57602036600319011261035e576004356001600160401b03811161035e57610e7f610e706020610d0d6105919436906004016146bf565b3461035e57600036600319011261035e57611bff614852565b600080546001600160a01b0319811682556001600160a01b03167f8be0079c531659141344cd1fd0a4f28419497f9722a3daafe3b4186f6b6457e08280a3005b3461035e57604036600319011261035e576004356001600160401b03811161035e57611c6f9036906004016146bf565b6024356001600160401b03811161035e57611c8e9036906004016146bf565b336000526005602052611ca860ff60406000205416614a15565b611cb482511515614a7a565b611ccc60405160208185516112258183858a0161465c565b918251156000146122a757600191604051611ce68161455f565b602981527f53757276657920626c6f636b20646f6573206e6f74206578697374206f6e20626020820152683637b1b5b1b430b4b760b91b6040820152935b60405191611d3183614544565b8383526020830152604082015242606082015282151560808201528360a08201526040516020818451611d67818385890161465c565b8101600b81520301902081518051906001600160401b038211611539578190611d9084546144b7565b601f8111612257575b50602090601f83116001146121eb576000926121e0575b50508160011b916000199060031b1c19161781555b60208201518051906001600160401b038211611539578190611dea60018501546144b7565b601f811161218d575b50602090601f831160011461211b57600092612110575b50508160011b916000199060031b1c19161760018201555b60408201518051906001600160401b03821161153957611e4560028401546144b7565b601f81116120c9575b50602090601f831160011461205457918060a09492600594600092612049575b50508160011b916000199060031b1c19161760028201555b60608401516003820155611eaf60808501511515600483019060ff801983541691151516179055565b019101518051906001600160401b03821161153957611ece83546144b7565b601f8111612001575b50602090601f8311600114611f9457611f479493929160009183611f89575b50508160011b916000199060031b1c19161790555b611f426040518251611f2181836020870161465c565b600a908201908152602090829003019020805460ff1916851560ff16179055565b614b2f565b7f3f8dafeb5450b12547cad6d7f76b6c1f7808f789148f742314a6499132c9555260405180611f77868683614804565b0390a261059160405192839283614804565b015190508780611ef6565b90601f198316918460005260206000209260005b818110611fe95750916001939185611f479897969410611fd0575b505050811b019055611f0b565b015160001960f88460031b161c19169055878080611fc3565b92936020600181928786015181550195019301611fa8565b836000526020600020601f840160051c8101916020851061203f575b601f0160051c01905b8181106120335750611ed7565b60008155600101612026565b909150819061201d565b015190508980611e6e565b906002840160005260206000209160005b601f19851681106120b157509260a0949260019260059583601f19811610612098575b505050811b016002820155611e86565b015160001960f88460031b161c19169055898080612088565b91926020600181928685015181550194019201612065565b600284016000526020600020601f840160051c810160208510612109575b601f830160051c820181106120fd575050611e4e565b600081556001016120e7565b50806120e7565b015190508780611e0a565b9250600184016000526020600020906000935b601f1984168510612172576001945083601f19811610612159575b505050811b016001820155611e22565b015160001960f88460031b161c19169055878080612149565b8181015183556020948501946001909301929091019061212e565b909150600184016000526020600020601f840160051c8101602085106121d9575b90849392915b601f830160051c820181106121ca575050611df3565b600081558594506001016121b4565b50806121ae565b015190508780611db0565b9250836000526020600020906000935b601f198416851061223c576001945083601f19811610612223575b505050811b018155611dc5565b015160001960f88460031b161c19169055878080612216565b818101518355602094850194600190930192909101906121fb565b909150836000526020600020601f840160051c8101602085106122a0575b90849392915b601f830160051c82018110612291575050611d99565b6000815585945060010161227b565b5080612275565b60405160208101906122d160208286516122c48187858b0161465c565b8101038084520182614595565b51902060405160208101906122f160208288516122c48187858d0161465c565b5190201461237a57600191604051608081018181106001600160401b0382111761153957604052604381527f4461746162617365206861736820646f6573206e6f74206d6174636820626c6f60208201527f636b636861696e2068617368202d2064617461206d61792062652074616d70656040820152621c995960ea1b606082015293611d24565b6000916040516123898161455f565b602f81527f4461746120696e74656772697479207665726966696564202d206e6f2074616d60208201526e1c195c9a5b99c819195d1958dd1959608a1b604082015293611d24565b3461035e57602036600319011261035e576004356001600160401b03811161035e57610e7f61122560206104246105919436906004016146bf565b3461035e57602061242961241f366147d3565b9290610d0d614852565b8101600281520301902060005b815481101561247b5782600561244c8385614820565b500154146124625761245d90614be2565b612436565b6006925061246f91614820565b5001805460ff19169055005b005b3461035e5761010036600319011261035e576004356001600160401b03811161035e576124ae9036906004016146bf565b6024356001600160401b03811161035e576124cd9036906004016146bf565b906044356001600160401b03811161035e576124ed9036906004016146bf565b6064356001600160401b03811161035e5761250c9036906004016146bf565b916084356001600160401b03811161035e5761252c9036906004016146bf565b9360a4356001600160401b03811161035e5761254c9036906004016146bf565b9260c4356001600160401b03811161035e5761256c9036906004016146bf565b60e4356001600160401b03811161035e5761258b9036906004016146bf565b943360005260056020526125a660ff60406000205416614a15565b6125b285511515614a7a565b6125be84511515614ac6565b6125cd428784848c8c8b61487e565b956125e860405160208181610e708b8381519384920161465c565b9283511561383c575b612687866112d360348a8c612605426148ad565b604051958361261e88955180926020808901910161465c565b8401612633825180936020808501910161465c565b013360601b6020820152612650825180936020888501910161465c565b01612664825180936020878501910161465c565b8a5191016126788285830160208e0161465c565b01036014810184520182614595565b9360405190612695826144f1565b8882528760208301523360408301524260608301528660808301524360a0830152600160c083015260e0820152846101008201524361012082015288610140820152604051602081816126ee8c8381519384920161465c565b810160028152030190208054600160401b8110156115395761271591600182018155614820565b9190916138265780518051906001600160401b03821161153957819061273b85546144b7565b601f81116137d6575b50602090601f831160011461376a5760009261375f575b50508160011b916000199060031b1c19161782555b60208101518051906001600160401b03821161153957819061279560018601546144b7565b601f811161370c575b50602090601f831160011461369a5760009261368f575b50508160011b916000199060031b1c19161760018301555b6002820160018060a01b036040830151166001600160601b0360a01b8254161790556060810151600383015560808101518051906001600160401b03821161153957819061281e60048601546144b7565b601f811161363c575b50602090601f83116001146135ca576000926135bf575b50508160011b916000199060031b1c19161760048301555b60a0810151600583015561287f60c08201511515600684019060ff801983541691151516179055565b60e08101518051906001600160401b0382116115395781906128a460078601546144b7565b601f811161356c575b50602090601f83116001146134fa576000926134ef575b50508160011b916000199060031b1c19161760078301555b6101008101518051906001600160401b0382116115395761290060088501546144b7565b601f81116134a8575b50602090601f83116001146134345761014093929160009183613429575b50508160011b916000199060031b1c19161760088401555b610120810151600984015501518051906001600160401b0382116115395761296a600a8401546144b7565b601f81116133e2575b50602090601f831160011461337257600a929160009183613367575b50508160011b916000199060031b1c1916179101555b604051926129b284614528565b8784528960208501528a60408501526060840152608083015260a08201524260c0820152600160e082015260405160208187516129f28183858c0161465c565b810160038152030190209080518051906001600160401b038211611539578190612a1c85546144b7565b601f8111613317575b50602090601f83116001146132ab576000926132a0575b50508160011b916000199060031b1c19161782555b60208101518051906001600160401b038211611539578190612a7660018601546144b7565b601f811161324d575b50602090601f83116001146131db576000926131d0575b50508160011b916000199060031b1c19161760018301555b60408101518051906001600160401b038211611539578190612ad360028601546144b7565b601f811161317d575b50602090601f831160011461310b57600092613100575b50508160011b916000199060031b1c19161760028301555b60608101518051906001600160401b038211611539578190612b3060038601546144b7565b601f81116130ad575b50602090601f831160011461303b57600092613030575b50508160011b916000199060031b1c19161760038301555b60808101518051906001600160401b038211611539578190612b8d60048601546144b7565b601f8111612fdd575b50602090601f8311600114612f6b57600092612f60575b50508160011b916000199060031b1c19161760048301555b60a08101518051906001600160401b03821161153957612be860058501546144b7565b601f8111612f19575b50602090601f8311600114612ea057928260079360e093612c4e9796600092612e95575b50508160011b916000199060031b1c19161760058501555b60c081015160068501550151151591019060ff801983541691151516179055565b6040516020818651612c638183858b0161465c565b81016006815203019020908051906001600160401b03821161153957612c8983546144b7565b601f8111612e51575b50602090601f8311600114612db65794612d849794612d929484612d6f957f68375f142c78057cdafc077f46de16ba1149b3d9ec67c8c315f7a48b859722c49c9a95612da09a600092612dab575b50508160011b916000199060031b1c19161790555b7fe85d545caa9029b0e323a8d64a4b1faba24f52accb1e5a05efd882c6ae9c2492612d4c612d2285614b2f565b92612d386040519560a0875260a087019061467f565b90426020870152858203604087015261467f565b92436060820152808403608082015280612d6733958a61467f565b0390a3614b2f565b9660405195869560808752608087019061467f565b90858203602087015261467f565b90838203604085015261467f565b4260608301520390a2005b015190508e80612ce0565b90601f198316918460005260206000209260005b818110612e395750946001857f68375f142c78057cdafc077f46de16ba1149b3d9ec67c8c315f7a48b859722c49c9a95612da09a95612d849d9a95612d6f99612d929b10612e20575b505050811b019055612cf5565b015160001960f88460031b161c191690558e8080612e13565b92936020600181928786015181550195019301612dca565b836000526020600020601f840160051c810160208510612e8e575b601f830160051c82018110612e82575050612c92565b60008155600101612e6c565b5080612e6c565b015190508e80612c15565b906005850160005260206000209160005b601f1985168110612f0157508360e093612c4e979693600193600797601f19811610612ee8575b505050811b016005850155612c2d565b015160001960f88460031b161c191690558e8080612ed8565b91926020600181928685015181550194019201612eb1565b600585016000526020600020601f840160051c810160208510612f59575b601f830160051c82018110612f4d575050612bf1565b60008155600101612f37565b5080612f37565b015190508b80612bad565b9250600485016000526020600020906000935b601f1984168510612fc2576001945083601f19811610612fa9575b505050811b016004830155612bc5565b015160001960f88460031b161c191690558b8080612f99565b81810151835560209485019460019093019290910190612f7e565b909150600485016000526020600020601f840160051c810160208510613029575b90849392915b601f830160051c8201811061301a575050612b96565b60008155859450600101613004565b5080612ffe565b015190508b80612b50565b9250600385016000526020600020906000935b601f1984168510613092576001945083601f19811610613079575b505050811b016003830155612b68565b015160001960f88460031b161c191690558b8080613069565b8181015183556020948501946001909301929091019061304e565b909150600385016000526020600020601f840160051c8101602085106130f9575b90849392915b601f830160051c820181106130ea575050612b39565b600081558594506001016130d4565b50806130ce565b015190508b80612af3565b9250600285016000526020600020906000935b601f1984168510613162576001945083601f19811610613149575b505050811b016002830155612b0b565b015160001960f88460031b161c191690558b8080613139565b8181015183556020948501946001909301929091019061311e565b909150600285016000526020600020601f840160051c8101602085106131c9575b90849392915b601f830160051c820181106131ba575050612adc565b600081558594506001016131a4565b508061319e565b015190508b80612a96565b9250600185016000526020600020906000935b601f1984168510613232576001945083601f19811610613219575b505050811b016001830155612aae565b015160001960f88460031b161c191690558b8080613209565b818101518355602094850194600190930192909101906131ee565b909150600185016000526020600020601f840160051c810160208510613299575b90849392915b601f830160051c8201811061328a575050612a7f565b60008155859450600101613274565b508061326e565b015190508b80612a3c565b9250846000526020600020906000935b601f19841685106132fc576001945083601f198116106132e3575b505050811b018255612a51565b015160001960f88460031b161c191690558b80806132d6565b818101518355602094850194600190930192909101906132bb565b909150846000526020600020601f840160051c810160208510613360575b90849392915b601f830160051c82018110613351575050612a25565b6000815585945060010161333b565b5080613335565b015190508e8061298f565b90600a840160005260206000209160005b601f19851681106133ca5750918391600193600a95601f198116106133b1575b505050811b019101556129a5565b015160001960f88460031b161c191690558e80806133a3565b91926020600181928685015181550194019201613383565b600a84016000526020600020601f840160051c810160208510613422575b601f830160051c82018110613416575050612973565b60008155600101613400565b5080613400565b015190508f80612927565b906008850160005260206000209160005b601f198516811061349057509183916001936101409695601f19811610613477575b505050811b01600884015561293f565b015160001960f88460031b161c191690558f8080613467565b91926020600181928685015181550194019201613445565b600885016000526020600020601f840160051c8101602085106134e8575b601f830160051c820181106134dc575050612909565b600081556001016134c6565b50806134c6565b015190508e806128c4565b9250600785016000526020600020906000935b601f1984168510613551576001945083601f19811610613538575b505050811b0160078301556128dc565b015160001960f88460031b161c191690558e8080613528565b8181015183556020948501946001909301929091019061350d565b909150600785016000526020600020601f840160051c8101602085106135b8575b90849392915b601f830160051c820181106135a95750506128ad565b60008155859450600101613593565b508061358d565b015190508e8061283e565b9250600485016000526020600020906000935b601f1984168510613621576001945083601f19811610613608575b505050811b016004830155612856565b015160001960f88460031b161c191690558e80806135f8565b818101518355602094850194600190930192909101906135dd565b909150600485016000526020600020601f840160051c810160208510613688575b90849392915b601f830160051c82018110613679575050612827565b60008155859450600101613663565b508061365d565b015190508e806127b5565b9250600185016000526020600020906000935b601f19841685106136f1576001945083601f198116106136d8575b505050811b0160018301556127cd565b015160001960f88460031b161c191690558e80806136c8565b818101518355602094850194600190930192909101906136ad565b909150600185016000526020600020601f840160051c810160208510613758575b90849392915b601f830160051c8201811061374957505061279e565b60008155859450600101613733565b508061372d565b015190508e8061275b565b9250846000526020600020906000935b601f19841685106137bb576001945083601f198116106137a2575b505050811b018255612770565b015160001960f88460031b161c191690558e8080613795565b8181015183556020948501946001909301929091019061377a565b909150846000526020600020601f840160051c81016020851061381f575b90849392915b601f830160051c82018110613810575050612744565b600081558594506001016137fa565b50806137f4565b634e487b7160e01b600052600060045260246000fd5b9250613846614b12565b926125f1565b3461035e5760a036600319011261035e576138656144a1565b6024356001600160401b03811161035e576138849036906004016146bf565b6044356001600160401b03811161035e576138a39036906004016146bf565b916064356001600160401b03811161035e576138c39036906004016146bf565b6084356001600160401b03811161035e576138e29036906004016146bf565b936138eb614852565b6138ff6001600160a01b0384161515614d6a565b835115613ff357805115613fae57815115613f6957845115613f2b576040516139278161450d565b6001600160a01b038481168083526020808401888152604080860187905260608601889052608086018b9052600160a08701524260c0870152600093845260049092529120835181546001600160a01b0319169316929092178255518051919291906001600160401b0382116115395781906139a660018601546144b7565b601f8111613ed8575b50602090601f8311600114613e6657600092613e5b575b50508160011b916000199060031b1c19161760018301555b60408101518051906001600160401b038211611539578190613a0360028601546144b7565b601f8111613e08575b50602090601f8311600114613d9657600092613d8b575b50508160011b916000199060031b1c19161760028301555b60608101518051906001600160401b038211611539578190613a6060038601546144b7565b601f8111613d38575b50602090601f8311600114613cc657600092613cbb575b50508160011b916000199060031b1c19161760038301555b60808101518051906001600160401b03821161153957613abb60048501546144b7565b601f8111613c74575b50602090601f8311600114613bcc5794613b879794600660c0613ba396867fc5d4b575e5bdb27802d44e5cdbe4804d1c9b0c111cdf21a596835e7424e6c7c49d9b97613b9597613bbc9c600092613bc1575b50508160011b916000199060031b1c19161760048501555b613b4d60a08201511515600586019060ff801983541691151516179055565b015191015560018060a01b03851660005260056020526040600020600160ff1982541617905560405197889760808952608089019061467f565b90878203602089015261467f565b90858203604087015261467f565b83810360608501526001600160a01b039091169561467f565b0390a2005b015190503880613b16565b906004850160005260206000209160005b601f1985168110613c5c575094600660c0613ba396600187613b95977fc5d4b575e5bdb27802d44e5cdbe4804d1c9b0c111cdf21a596835e7424e6c7c49f9d9997613b879f9c613bbc9e99601f19811610613c43575b505050811b016004850155613b2e565b015160001960f88460031b161c19169055388080613c33565b91926020600181928685015181550194019201613bdd565b600485016000526020600020601f840160051c810160208510613cb4575b601f830160051c82018110613ca8575050613ac4565b60008155600101613c92565b5080613c92565b015190508980613a80565b9250600385016000526020600020906000935b601f1984168510613d1d576001945083601f19811610613d04575b505050811b016003830155613a98565b015160001960f88460031b161c19169055898080613cf4565b81810151835560209485019460019093019290910190613cd9565b909150600385016000526020600020601f840160051c810160208510613d84575b90849392915b601f830160051c82018110613d75575050613a69565b60008155859450600101613d5f565b5080613d59565b015190508980613a23565b9250600285016000526020600020906000935b601f1984168510613ded576001945083601f19811610613dd4575b505050811b016002830155613a3b565b015160001960f88460031b161c19169055898080613dc4565b81810151835560209485019460019093019290910190613da9565b909150600285016000526020600020601f840160051c810160208510613e54575b90849392915b601f830160051c82018110613e45575050613a0c565b60008155859450600101613e2f565b5080613e29565b0151905089806139c6565b9250600185016000526020600020906000935b601f1984168510613ebd576001945083601f19811610613ea4575b505050811b0160018301556139de565b015160001960f88460031b161c19169055898080613e94565b81810151835560209485019460019093019290910190613e79565b909150600185016000526020600020601f840160051c810160208510613f24575b90849392915b601f830160051c82018110613f155750506139af565b60008155859450600101613eff565b5080613ef9565b60405162461bcd60e51b815260206004820152601660248201527554616c756b612063616e6e6f7420626520656d70747960501b6044820152606490fd5b60405162461bcd60e51b815260206004820152601860248201527f44697374726963742063616e6e6f7420626520656d70747900000000000000006044820152606490fd5b60405162461bcd60e51b815260206004820152601b60248201527f44657369676e6174696f6e2063616e6e6f7420626520656d70747900000000006044820152606490fd5b60405162461bcd60e51b81526020600482015260146024820152734e616d652063616e6e6f7420626520656d70747960601b6044820152606490fd5b3461035e57602036600319011261035e576001600160a01b036140506144a1565b166000526005602052602060ff604060002054166040519015158152f35b3461035e57602036600319011261035e576004356001600160401b03811161035e576110f26020610d0d819336906004016146bf565b3461035e57602036600319011261035e576004356001600160401b03811161035e57610e7f6112256020610d0d6105919436906004016146bf565b3461035e5760208060031936011261035e576004356001600160401b03811161035e576141109036906004016146bf565b61411c81511515614a7a565b81614130604051928381519384920161465c565b81019082816002938481520301902080549061414b82614b4f565b926141596040519485614595565b828452600091825284822090858086015b85851061430d575085805161417e81614b66565b9261418882614bb0565b9061419283614bb0565b9061419c84614b66565b926141a685614b66565b946141b081614b66565b9660005b82811061422d578960c06105918b61421f8c6142118d6142038e6141f58f8f6141e86040519d8d8f9e8f9081520190614706565b918c8303908d0152614762565b9089820360408b0152614796565b908782036060890152614706565b908582036080870152614706565b9083820360a0850152614706565b808561423c6143089385614bf1565b510151614249828d614bf1565b52614254818c614bf1565b5060606142618285614bf1565b51015161426e8287614bf1565b526001600160a01b0360406142838386614bf1565b510151166142918289614bf1565b52608061429e8285614bf1565b5101516142ab828a614bf1565b526142b68189614bf1565b506101406142c48285614bf1565b5101516142d1828b614bf1565b526142dc818a614bf1565b506101006142ea8285614bf1565b5101516142f7828c614bf1565b52614302818b614bf1565b50614be2565b6141b4565b600191600b9160405161431f816144f1565b614328876145b6565b81526143358588016145b6565b83820152848060a01b03868801541660408201526003870154606082015261435f600488016145b6565b6080820152600587015460a082015260ff600688015416151560c0820152614389600788016145b6565b60e082015261439a600888016145b6565b61010082015260098701546101208201526143b7600a88016145b6565b610140820152815201930193019291869061416a565b3461035e57602036600319011261035e576001600160a01b03806143ef6144a1565b16600052600460205260406000209081541661440d600183016145b6565b9161441a600282016145b6565b614490614429600384016145b6565b614482614438600486016145b6565b91614474600660ff600589015416970154956144666040519a8b9a8b5260e060208c015260e08b019061467f565b9089820360408b015261467f565b90878203606089015261467f565b90858203608087015261467f565b91151560a084015260c08301520390f35b600435906001600160a01b038216820361035e57565b90600182811c921680156144e7575b60208310146144d157565b634e487b7160e01b600052602260045260246000fd5b91607f16916144c6565b61016081019081106001600160401b0382111761153957604052565b60e081019081106001600160401b0382111761153957604052565b61010081019081106001600160401b0382111761153957604052565b60c081019081106001600160401b0382111761153957604052565b606081019081106001600160401b0382111761153957604052565b604081019081106001600160401b0382111761153957604052565b90601f801991011681019081106001600160401b0382111761153957604052565b90604051918260008254926145ca846144b7565b90818452600194858116908160001461463957506001146145f6575b50506145f492500383614595565b565b9093915060005260209081600020936000915b8183106146215750506145f4935082010138806145e6565b85548884018501529485019487945091830191614609565b9150506145f494506020925060ff191682840152151560051b82010138806145e6565b60005b83811061466f5750506000910152565b818101518382015260200161465f565b906020916146988151809281855285808601910161465c565b601f01601f1916010190565b6001600160401b03811161153957601f01601f191660200190565b81601f8201121561035e578035906146d6826146a4565b926146e46040519485614595565b8284526020838301011161035e57816000926020809301838601378301015290565b908082519081815260208091019281808460051b8301019501936000915b8483106147345750505050505090565b9091929394958480614752600193601f198682030187528a5161467f565b9801930193019194939290614724565b90815180825260208080930193019160005b828110614782575050505090565b835185529381019392810192600101614774565b90815180825260208080930193019160005b8281106147b6575050505090565b83516001600160a01b0316855293810193928101926001016147a8565b604060031982011261035e57600435906001600160401b03821161035e576147fd916004016146bf565b9060243590565b60409061481d939215158152816020820152019061467f565b90565b805482101561483c57600052600b602060002091020190600090565b634e487b7160e01b600052603260045260246000fd5b6000546001600160a01b0316330361486657565b60405163118cdaa760e01b8152336004820152602490fd5b929091946112d39461489261481d986148ad565b9260405197889587516112548160209a8b808c01910161465c565b806000917a184f03e93ff9f4daa797ed6e38ed64bf6a1f01000000000000000080821015614a07575b506d04ee2d6d415b85acef8100000000808310156149f8575b50662386f26fc10000808310156149e9575b506305f5e100808310156149da575b50612710808310156149cb575b5060648210156149bb575b600a809210156149b1575b60019081602181860195614946876146a4565b966149546040519889614595565b808852614963601f19916146a4565b01366020890137860101905b61497b575b5050505090565b600019019083906f181899199a1a9b1b9c1cb0b131b232b360811b8282061a8353049182156149ac5791908261496f565b614974565b9160010191614933565b9190606460029104910191614928565b6004919392049101913861491d565b60089193920491019138614910565b60109193920491019138614901565b602091939204910191386148ef565b6040935081049150386148d6565b15614a1c57565b60405162461bcd60e51b815260206004820152603060248201527f4f6e6c7920617574686f72697a6564206f666669636572732063616e2070657260448201526f3337b936903a3434b99030b1ba34b7b760811b6064820152608490fd5b15614a8157565b60405162461bcd60e51b815260206004820152601d60248201527f537572766579206e756d6265722063616e6e6f7420626520656d7074790000006044820152606490fd5b15614acd57565b60405162461bcd60e51b815260206004820152601a60248201527f4576656e7420747970652063616e6e6f7420626520656d7074790000000000006044820152606490fd5b60405190614b1f8261457a565b60018252600360fc1b6020830152565b614b479060206040519282848094519384920161465c565b810103902090565b6001600160401b0381116115395760051b60200190565b90614b7082614b4f565b614b7d6040519182614595565b8281528092614b8e601f1991614b4f565b019060005b828110614b9f57505050565b806060602080938501015201614b93565b90614bba82614b4f565b614bc76040519182614595565b8281528092614bd8601f1991614b4f565b0190602036910137565b600019811461154f5760010190565b805182101561483c5760209160051b010190565b60408051918051614c1b8185602080950161465c565b83019281816002958681520301902090815492614c3784614b4f565b94614c4482519687614595565b8486526000938452828420918387015b868610614cae575050505050505060005b8151811015614ca6578260a0614c7b8385614bf1565b51015114614c9157614c8c90614be2565b614c65565b60c09250614c9e91614bf1565b510151151590565b505050600090565b600b856001928451614cbf816144f1565b614cc8886145b6565b8152614cd58589016145b6565b83820152848060a01b0387890154168682015260038801546060820152614cfe600489016145b6565b6080820152600588015460a082015260ff600689015416151560c0820152614d28600789016145b6565b60e0820152614d39600889016145b6565b6101008201526009880154610120820152614d56600a89016145b6565b610140820152815201940195019492614c54565b15614d7157565b60405162461bcd60e51b815260206004820152601760248201527f496e76616c6964206f66666963657220616464726573730000000000000000006044820152606490fd5b9190820180921161154f57565b90815181101561483c570160200190565b906000805b8351821015614e1557614e09614df582614e0f9360051b614db6565b614dff8487614dc3565b5160f81c90614db6565b91614be2565b90614dd9565b919250506fffffffffffffffffffffffffffffffff811160071b6001600160401b0382821c1160061b1763ffffffff82821c1160051b1760049061ffff83821c11821b179160018360ff8383961c119060031c1701908082851b9460018060ff1b0384168403614f91576002860195868111614f5257614ead614e97886146a4565b97614ea5604051998a614595565b8089526146a4565b6020880190601f1901368237875115614f6757603090538651821015614f7c5760786021880153818101809111614f5257905b808211614f0f575050614ef35750505090565b60405163e22e27eb60e01b815292830152602482015260449150fd5b9091600f81166010811015614f67576f181899199a1a9b1b9c1cb0b131b232b360811b901a614f3e8489614dc3565b53851c918015614f52576000190190614ee0565b601186634e487b7160e01b6000525260246000fd5b603287634e487b7160e01b6000525260246000fd5b603286634e487b7160e01b6000525260246000fd5b601185634e487b7160e01b6000525260246000fd5b908154600160401b81101561153957614fc6906001938482018155614820565b929092613826578151908151906001600160401b03918281116115395780614fee87546144b7565b94601f95868111615757575b506020908683116001146156f4576000926156e9575b5050600019600383901b1c191690821b1785555b808501602085015180519084821161153957819061504284546144b7565b878111615696575b5060209087831160011461563357600092615628575b5050600019600383901b1c191690831b1790555b60028501604085015180519084821161153957819061509384546144b7565b8781116155d5575b5060209087831160011461557257600092615567575b5050600019600383901b1c191690831b1790555b60039081860160608601518051908582116115395781906150e684546144b7565b888111615514575b506020908883116001146154b2576000926154a7575b505060001982861b1c191690831b1790555b60048601608086015180519085821161153957819061513584546144b7565b888111615454575b506020908883116001146153f2576000926153e7575b505060001982861b1c191690831b1790555b60a085015160058701556006860160018060a01b0360c0870151166001600160601b0360a01b8254161790556007860160e08601518051908582116115395781906151b084546144b7565b888111615394575b5060209088831160011461533257600092615327575b505060001982861b1c191690831b1790555b60088601936101008601518051948511611539576151fe86546144b7565b8281116152df575b50602091851160011461526a57936145f497969381600a979481946101409860009561525f575b50501b92600019911b1c19161790555b61012081015160098501550151151591019060ff801983541691151516179055565b01519350388061522d565b91939290601f1984169286600052816000209360005b8181106152c95750928592600a9895926145f49b9a976101409996106152af575b50505050811b01905561523d565b01519060f884600019921b161c19169055388080806152a1565b8284015186559487019460209384019301615280565b8660005260206000208380880160051c8201926020891061531e575b0160051c019084905b828110615312575050615206565b60008155018490615304565b925081926152fb565b0151905038806151ce565b90859350601f1983169185600052816000209260005b81811061537c57508411615364575b505050811b0190556151e0565b015160001983881b60f8161c19169055388080615357565b82840151855588969094019360209384019301615348565b9091508360005260206000208880850160051c820192602086106153de575b918791869594930160051c01915b8281106153cf5750506151b8565b600081558594508791016153c1565b925081926153b3565b015190503880615153565b90859350601f1983169185600052816000209260005b81811061543c57508411615424575b505050811b019055615165565b015160001983881b60f8161c19169055388080615417565b82840151855588969094019360209384019301615408565b9091508360005260206000208880850160051c8201926020861061549e575b918791869594930160051c01915b82811061548f57505061513d565b60008155859450879101615481565b92508192615473565b015190503880615104565b90859350601f1983169185600052816000209260005b8181106154fc575084116154e4575b505050811b019055615116565b015160001983881b60f8161c191690553880806154d7565b828401518555889690940193602093840193016154c8565b9091508360005260206000208880850160051c8201926020861061555e575b918791869594930160051c01915b82811061554f5750506150ee565b60008155859450879101615541565b92508192615533565b0151905038806150b1565b90859350601f1983169185600052816000209260005b8181106155bd575084116155a4575b505050811b0190556150c5565b015160001960f88460031b161c19169055388080615597565b82840151855588969094019360209384019301615588565b9091508360005260206000208780850160051c8201926020861061561f575b918791869594930160051c01915b82811061561057505061509b565b60008155859450879101615602565b925081926155f4565b015190503880615060565b90859350601f1983169185600052816000209260005b81811061567e57508411615665575b505050811b019055615074565b015160001960f88460031b161c19169055388080615658565b82840151855588969094019360209384019301615649565b9091508360005260206000208780850160051c820192602086106156e0575b918791869594930160051c01915b8281106156d157505061504a565b600081558594508791016156c3565b925081926156b5565b015190503880615010565b90849350601f1983169189600052816000209260005b81811061573f57508411615726575b505050811b018555615024565b015160001960f88460031b161c19169055388080615719565b8284015185558796909401936020938401930161570a565b9091506000888152602081208780860160051c820193602087106157a2575b91879187969594930160051c01925b83811061579457505050614ffa565b828155869550879101615785565b9350819361577656fe128778f26baa9f7315389ec7cf48371494bad555182f0b0507e85dfdfdf0a445a2646970667358221220eb13a640b8318f32094e04a4853893e5a81819dc52b21b0fb7255474bdb5d3f064736f6c63430008140033",
  "linkReferences": {},
  "deployedLinkReferences": {}
}